:020000040000fa
:080000000002040000000000f2
:020000040000fa
:040008004a030000a7
:020000040000fa
:04000c00c802000026
:020000040000fa
:040010000a030000df
:020000040000fa
:04001400e8020000fe
:020000040000fa
:040018002a030000b7
:020000040000fa
:04001c004a03000093
:020000040000fa
:040020004a0300008f
:020000040000fa
:040024004a0300008b
:020000040000fa
:040028004a03000087
:020000040000fa
:04002c004a03000083
:020000040000fa
:040030004a0300007f
:020000040000fa
:040034004a0300007b
:020000040000fa
:040038004a03000077
:020000040000fa
:04003c004a03000073
:020000040000fa
:040040004a0300006f
:020000040000fa
:040044004a0300006b
:020000040000fa
:040048004a03000067
:020000040000fa
:04004c004a03000063
:020000040000fa
:040050004a0300005f
:020000040000fa
:040054004a0300005b
:020000040000fa
:040058004a03000057
:020000040000fa
:04005c004a03000053
:020000040000fa
:040060004a0300004f
:020000040000fa
:040064004a0300004b
:020000040000fa
:040068004a03000047
:020000040000fa
:04006c004a03000043
:020000040000fa
:040070004a0300003f
:020000040000fa
:040074004a0300003b
:020000040000fa
:040078004a03000037
:020000040000fa
:04007c004a03000033
:020000040000fa
:040080004a0300002f
:020000040000fa
:040084004a0300002b
:020000040000fa
:040088004a03000027
:020000040000fa
:04008c004a03000023
:020000040000fa
:040090004a0300001f
:020000040000fa
:040094004a0300001b
:020000040000fa
:040098004a03000017
:020000040000fa
:04009c004a03000013
:020000040000fa
:0400a0004a0300000f
:020000040000fa
:0400a4004a0300000b
:020000040000fa
:0400a8004a03000007
:020000040000fa
:0400ac004a03000003
:020000040000fa
:0400b0004a030000ff
:020000040000fa
:0400b4004a030000fb
:020000040000fa
:0400b8004a030000f7
:020000040000fa
:0400bc004a030000f3
:020000040000fa
:0400c0004a030000ef
:020000040000fa
:0400c4004a030000eb
:020000040000fa
:0400c8004a030000e7
:020000040000fa
:0400cc004a030000e3
:020000040000fa
:0400d0004a030000df
:020000040000fa
:0400d4004a030000db
:020000040000fa
:0400d8004a030000d7
:020000040000fa
:0400dc004a030000d3
:020000040000fa
:0400e0004a030000cf
:020000040000fa
:0400e4004a030000cb
:020000040000fa
:0400e8004a030000c7
:020000040000fa
:0400ec004a030000c3
:020000040000fa
:0400f0004a030000bf
:020000040000fa
:0400f4004a030000bb
:020000040000fa
:0400f8004a030000b7
:020000040000fa
:0400fc004a030000b3
:020000040000fa
:040100004a030000ae
:020000040000fa
:040104004a030000aa
:020000040000fa
:040108004a030000a6
:020000040000fa
:04010c004a030000a2
:020000040000fa
:040110004a0300009e
:020000040000fa
:040114004a0300009a
:020000040000fa
:040118004a03000096
:020000040000fa
:04011c004a03000092
:020000040000fa
:040120004a0300008e
:020000040000fa
:040124004a0300008a
:020000040000fa
:040128004a03000086
:020000040000fa
:04012c004a03000082
:020000040000fa
:040130004a0300007e
:020000040000fa
:040134004a0300007a
:020000040000fa
:040138004a03000076
:020000040000fa
:04013c004a03000072
:020000040000fa
:040140004a0300006e
:020000040000fa
:040144004a0300006a
:020000040000fa
:040148004a03000066
:020000040000fa
:04014c004a03000062
:020000040000fa
:040150004a0300005e
:020000040000fa
:040154004a0300005a
:020000040000fa
:040158004a03000056
:020000040000fa
:04015c004a03000052
:020000040000fa
:040160004a0300004e
:020000040000fa
:040164004a0300004a
:020000040000fa
:040168004a03000046
:020000040000fa
:04016c004a03000042
:020000040000fa
:040170004a0300003e
:020000040000fa
:040174004a0300003a
:020000040000fa
:040178004a03000036
:020000040000fa
:04017c004a03000032
:020000040000fa
:040180004a0300002e
:020000040000fa
:040184004a0300002a
:020000040000fa
:040188004a03000026
:020000040000fa
:04018c004a03000022
:020000040000fa
:040190004a0300001e
:020000040000fa
:040194004a0300001a
:020000040000fa
:040198004a03000016
:020000040000fa
:04019c004a03000012
:020000040000fa
:0401a0004a0300000e
:020000040000fa
:0401a4004a0300000a
:020000040000fa
:0401a8004a03000006
:020000040000fa
:0401ac004a03000002
:020000040000fa
:040208004a030000a5
:020000040000fa
:04020c00c802000024
:020000040000fa
:040210000a030000dd
:020000040000fa
:04021400e8020000fc
:020000040000fa
:040218002a030000b5
:020000040000fa
:04021c004a03000091
:020000040000fa
:040220004a0300008d
:020000040000fa
:040224004a03000089
:020000040000fa
:040228004a03000085
:020000040000fa
:04022c004a03000081
:020000040000fa
:040230004a0300007d
:020000040000fa
:040234004a03000079
:020000040000fa
:040238004a03000075
:020000040000fa
:04023c004a03000071
:020000040000fa
:040240004a0300006d
:020000040000fa
:040244004a03000069
:020000040000fa
:040248004a03000065
:020000040000fa
:04024c004a03000061
:020000040000fa
:040250004a0300005d
:020000040000fa
:040254004a03000059
:020000040000fa
:040258004a03000055
:020000040000fa
:04025c004a03000051
:020000040000fa
:040260004a0300004d
:020000040000fa
:040264004a03000049
:020000040000fa
:040268004a03000045
:020000040000fa
:04026c004a03000041
:020000040000fa
:040270004a0300003d
:020000040000fa
:040274004a03000039
:020000040000fa
:040278004a03000035
:020000040000fa
:04027c004a03000031
:020000040000fa
:040280004a0300002d
:020000040000fa
:040284004a03000029
:020000040000fa
:040288004a03000025
:020000040000fa
:04028c004a03000021
:020000040000fa
:040290004a0300001d
:020000040000fa
:040294004a03000019
:020000040000fa
:040298004a03000015
:020000040000fa
:04029c004a03000011
:020000040000fa
:0402a0004a0300000d
:020000040000fa
:0402a4004a03000009
:020000040000fa
:0402a8004a03000005
:020000040000fa
:0402ac004a03000001
:020000040000fa
:0402b0004a030000fd
:020000040000fa
:0402b4004a030000f9
:020000040000fa
:0402b8004a030000f5
:020000040000fa
:0402bc004a030000f1
:020000040000fa
:0402c0004a030000ed
:020000040000fa
:0402c4004a030000e9
:020000040000fa
:0402c8004a030000e5
:020000040000fa
:0402cc004a030000e1
:020000040000fa
:0402d0004a030000dd
:020000040000fa
:0402d4004a030000d9
:020000040000fa
:0402d8004a030000d5
:020000040000fa
:0402dc004a030000d1
:020000040000fa
:0402e0004a030000cd
:020000040000fa
:0402e4004a030000c9
:020000040000fa
:0402e8004a030000c5
:020000040000fa
:0402ec004a030000c1
:020000040000fa
:0402f0004a030000bd
:020000040000fa
:0402f4004a030000b9
:020000040000fa
:0402f8004a030000b5
:020000040000fa
:0402fc004a030000b1
:020000040000fa
:040300004a030000ac
:020000040000fa
:040304004a030000a8
:020000040000fa
:040308004a030000a4
:020000040000fa
:04030c004a030000a0
:020000040000fa
:040310004a0300009c
:020000040000fa
:040314004a03000098
:020000040000fa
:040318004a03000094
:020000040000fa
:04031c004a03000090
:020000040000fa
:040320004a0300008c
:020000040000fa
:040324004a03000088
:020000040000fa
:040328004a03000084
:020000040000fa
:04032c004a03000080
:020000040000fa
:040330004a0300007c
:020000040000fa
:040334004a03000078
:020000040000fa
:040338004a03000074
:020000040000fa
:04033c004a03000070
:020000040000fa
:040340004a0300006c
:020000040000fa
:040344004a03000068
:020000040000fa
:040348004a03000064
:020000040000fa
:04034c004a03000060
:020000040000fa
:040350004a0300005c
:020000040000fa
:040354004a03000058
:020000040000fa
:040358004a03000054
:020000040000fa
:04035c004a03000050
:020000040000fa
:040360004a0300004c
:020000040000fa
:040364004a03000048
:020000040000fa
:040368004a03000044
:020000040000fa
:04036c004a03000040
:020000040000fa
:040370004a0300003c
:020000040000fa
:040374004a03000038
:020000040000fa
:040378004a03000034
:020000040000fa
:04037c004a03000030
:020000040000fa
:040380004a0300002c
:020000040000fa
:040384004a03000028
:020000040000fa
:040388004a03000024
:020000040000fa
:04038c004a03000020
:020000040000fa
:040390004a0300001c
:020000040000fa
:040394004a03000018
:020000040000fa
:040398004a03000014
:020000040000fa
:04039c004a03000010
:020000040000fa
:0403a0004a0300000c
:020000040000fa
:0403a4004a03000008
:020000040000fa
:0403a8004a03000004
:020000040000fa
:0403ac004a03000000
:020000040000fa
:10040000ef8220000eff20000e0188000000000097
:10041000000020000000e000020032000001200087
:1004200020028800140007009c0007000000e00084
:1004300003003a00806d2000010020000200370018
:100440000000200001002000810f70000100320038
:1004500014000700000020000000e000020032004d
:100460000000020000000000ce04020000000000b6
:100470000040da000000fe004440a9000010200007
:100480000000e0000300320000002000a00188000e
:100490004440a800000006008a1f78008b1f7800e7
:1004a0000000060091018800800478000000eb0045
:1004b0001a003700e284440032a0b4009905ba0063
:1004c000e284440032a0b4009906ba00e2844400f9
:1004d00032a0b4000006eb00476fde00fd07b2005b
:1004e000636ce10003003a00ebff07000000eb0043
:1004f0000a003700606ce10004003a00005deb0088
:100500008b05e900fdff3e00040037006168e10053
:10051000010032000086eb000b00070019c7ba008b
:100520001905ba000e04e00003003a000a00e000da
:10053000e0ff3a0000000600fe07b2009e018800be
:100540008a047800f5ff3700395dba008b05e900b1
:100550000c003200295dba008b05e900080032006a
:100560000c00e00003003a00e284440032a0b40032
:10057000f5ff370019ddba008b05e900faff3a00f4
:100580008904e800e184440032a0b40000000600c1
:100590003600f800809fbe00829fbe00849fbe0090
:1005a000869fbe000000fa008020a9000000eb003a
:1005b000120207000080fa004f03be004f02be0087
:1005c0004f01be004f00be003600f900004006009b
:1005d0003600f800809fbe00829fbe00849fbe0050
:1005e000869fbe000000fa000b0207008040a900b1
:1005f00010002000010207000080fa004f03be0037
:100600004f02be004f01be004f00be003600f90091
:10061000004006003600f800809fbe00829fbe00aa
:10062000849fbe00869fbe000000fa008060a90083
:1006300020002000f10107000080fa004f03be00f7
:100640004f02be004f01be004f00be003600f90051
:10065000004006003600f800809fbe00829fbe006a
:10066000849fbe00869fbe000000fa008080a90023
:1006700030002000e10107000080fa004f03be00b7
:100680004f02be004f01be004f00be003600f90011
:10069000004006000040da000000fe0000000500f7
:020000040000fa
:1006a00053650000727600006f2000004d6f00005f
:1006b0007665000064200000746f0000203900009f
:1006c00030b000002028000053770000697400005b
:1006d0006368000065730000205000005245000070
:1006e0005353000045440000290d00000a0000009b
:1006f00053650000727600006f2000005265000014
:1007000074750000726e00006564000020740000c3
:100710006f20000030b0000020280000416600007b
:100720007465000072200000524200003134000065
:10073000204800004947000048200000666f000084
:100740007220000035730000290d00000a0000002f
:1007500052410000372c00002052000042310000be
:10076000322c0000205200004231000034200000f2
:100770002849000052200000536500006e730000fd
:100780006f7200002920000054650000737400009f
:100790002053000074610000727400006564000062
:1007a0000d0a000000520000413700003a2000000e
:1007b000002c00002052000042310000323a0000bc
:1007c000200000000d0a000000520000423100002d
:1007d000342000002849000052200000536500002a
:1007e0006e7300006f720000292000004368000053
:1007f000616e000067650000643a000020000000a0
:1008000052420000313400002048000049470000f7
:1008100048200000646500007465000063740000f7
:10082000656400002c2000007374000061720000f9
:10083000746900006e670000203500002d73000011
:10084000656300006f6e00006420000074690000a2
:100850006d650000722e00002e2e00000d0a0000b3
:100860000052000042310000342000007765000093
:100870006e740000204c00004f5700002c20000038
:10088000746900006d650000722000007265000050
:1008900073650000742e00000d0a000000000000c7
:020000040000fa
:1008a0000200fa00000f7800090037000000000085
:1008b000e30007000004a2000004e000fcff3a008f
:1008c0001e007800104078001e0fe800c4000700ea
:1008d0001e007800104078000004e000f3ff3a00aa
:1008e0000080fa00000006000200fa00003528002f
:1008f000ebff07000000eb00000f78000900370055
:10090000c402a80080bb20000100200049010700ac
:10091000c402a90080082900010020004501070049
:100920001e0fe800100320009e007800808f50000a
:10093000f3ff340010002000604188000080fa00be
:10094000000006000200fa0080372800d4ff0700ec
:100950000000eb00000f780009003700c402a80077
:10096000803e20000100200032010700c402a900df
:1009700080852900010020002e0107001e0fe800dd
:10098000100320009e007800808f5000f3ff340099
:100990002c28ef000080fa00000006000a00fa0090
:1009a0003a01070075000700c0e2a800c982a8004c
:1009b000c9c2a800e004a900c002a900803a28002a
:1009c000b7ff0700101680004700de00614060009e
:1009d0000080fb0010079800501680004c00de00dd
:1009e000614060000080fb002007980050168000e6
:1009f0004e00de00614060000080fb003007980080
:100a0000004180009e009000808f500004003a005a
:100a100010418000ae009000808f50001c0032001a
:100a2000303d28009eff07001e0090000040780027
:100a30000043b0006a000700903d280098ff0700bf
:100a40002e009000004078000043b00064000700d2
:100a5000203e280092ff07001e0090000000e000ea
:100a600007003a002e0090000000e00004003a0069
:100a7000604180000000e00001003a009aff07009a
:100a80009e00900001418800ae0090001141880056
:100a900020418000be009000808f50000a0032008c
:100aa000503e28007eff07003e0090000040780086
:100ab0000043b0004a000700203e280078ff0700ee
:100ac000be00900021418800604180000000e000ed
:100ad000260032003e009000e10f500023003a0053
:100ae000004028006eff07000000eb00000f7800b8
:100af0000000eb00400798001300370000d42000ee
:100b000031002000cb000700501680004e00de00b0
:100b1000614060000080fb00400798004e0090009c
:100b2000e10f500003003a00410620001e8f4000f4
:100b3000050037000000eb00000f7800104328008c
:100b400057ff070004003700703821009e0078002e
:100b5000808f5000e9ff3400703821009e0078003b
:100b6000808f50000100340076ff070000d4200081
:100b700031002000af00070092ff37000000fa00ac
:100b800080002000801188003222ef003003200016
:100b9000c011880031e2a8003342a8000080fa00aa
:100ba000000006000000fa00000000009011800024
:100bb000610060000000e000fcff32009011800046
:100bc000620060000000e000010032003222a90053
:100bd000b0118000004078000080fa00000006009c
:100be0000200fa00004f7800000000009111800020
:100bf00000202000008060000000e000fbff3a00c1
:100c00001e80fb00a01188000080fa000000060092
:100c10000000fa0090118000004078006140600000
:100c20000080fb0000f0a7000000ea000000ea00de
:100c30004f00de00004078000080fa00000006004f
:100c40000000fa0091118000002020000080600068
:100c50000000e00007003a009111800000402000f1
:100c6000008060000000e000020032001000200060
:100c7000010037000000eb00004078000080fa001f
:100c8000000006000000fa00901180004800de001d
:100c9000614060000080fb0000f0a7000000ea0057
:100ca0000000ea004f00de00004078000080fa00fb
:100cb000000006000000fa00901180000080fa0099
:100cc000000006000000fa0031e2a8003342a8004c
:100cd0000080fa00000006000000fa0031e2a900de
:100ce0003342a9000080fa00000006000000fa006c
:100cf00000102300203a88004827ef004e27ef001d
:100d00007027ef007227ef007427ef007627ef00bf
:100d10007a27ef007e27ef00720020008007200076
:100d2000a1092000337420008049780081497800af
:100d3000824978000001eb0060042000710520006a
:100d40002374200080497800814978008249780026
:100d50000080fa00000006000000fa00c422ef0044
:100d60002000200060168800e00f20000016880098
:100d70000080eb004016880000002100b0028800cf
:100d80005820ef0020202400700388007020ef001e
:100d9000c622ef00ce22ef0060002000002788006e
:100da000c03e2a00102788000080fa0000000600dc
:020000040000fa
:100db0002608000004000000000000002a080000cf
:100dc0000200000002000000ffff00000008000019
:100dd00020000000000000002008000006000000c5
:100de00002000000ffffff00ffffff002c080000d3
:0c0df000020000000000000000000000f5
:020000040000fa
:100dfc000200fa00000f78009e0078005141880034
:100e0c000000fe000080fa00000006000000fa005e
:100e1c00008020008007780080812000000188007d
:080e2c000080fa00000006003e
:020000040000fa
:100e3400f03fb1000180b10006003500ee03090067
:100e440000000000403fb1000180b100fbff3d0005
:100e54001000b000203fb0000200350000800900ff
:080e6400000000000000060080
:020000040000fa
:100e6c00809fbe00ec805700310078003041880034
:100e7c001100780028e8b7004f00be000000060003
:100e8c000000fa00b1ff07000400070094ff070000
:100e9c0037ff07000080fa00000006000000fa008f
:080eac000080fa0000000600be
:020000040000fa
:0200000401f009
:04000000ffffff00ff
:020000040000fa
:0200000401f009
:04000800ffffff00f7
:020000040000fa
:0200000401f009
:04000c007fff000072
:020000040000fa
:0200000401f009
:04001000bbff000032
:020000040000fa
:0200000401f009
:040014005fff00008a
:020000040000fa
:0200000401f009
:04001800ffff0000e6
:020000040000fa
:0200000401f009
:04001c00ffff0000e2
:00000001FF
